{
  "fileName": "CryptoChocobo.sol",
  "contractName": "CryptoChocobo",
  "source": "pragma solidity ^0.5.0;\n\nimport '@openzeppelin/upgrades/contracts/Initializable.sol';\nimport '@openzeppelin/contracts-ethereum-package/contracts/token/ERC721/ERC721Full.sol';\nimport '@openzeppelin/contracts-ethereum-package/contracts/token/ERC721/ERC721Mintable.sol';\n\ncontract CryptoChocobo is Initializable, ERC721Full, ERC721Mintable {\n  function initialize() public initializer {\n    ERC721.initialize();\n    ERC721Enumerable.initialize();\n    ERC721Metadata.initialize(\"CryptoChocobo\", \"CC1\");\n    ERC721Mintable.initialize(msg.sender);\n  }\n}",
  "sourcePath": "contracts/CryptoChocobo.sol",
  "abi": [
    {
      "anonymous": false,
      "inputs": [
        {
          "indexed": true,
          "internalType": "address",
          "name": "owner",
          "type": "address"
        },
        {
          "indexed": true,
          "internalType": "address",
          "name": "approved",
          "type": "address"
        },
        {
          "indexed": true,
          "internalType": "uint256",
          "name": "tokenId",
          "type": "uint256"
        }
      ],
      "name": "Approval",
      "type": "event"
    },
    {
      "anonymous": false,
      "inputs": [
        {
          "indexed": true,
          "internalType": "address",
          "name": "owner",
          "type": "address"
        },
        {
          "indexed": true,
          "internalType": "address",
          "name": "operator",
          "type": "address"
        },
        {
          "indexed": false,
          "internalType": "bool",
          "name": "approved",
          "type": "bool"
        }
      ],
      "name": "ApprovalForAll",
      "type": "event"
    },
    {
      "anonymous": false,
      "inputs": [
        {
          "indexed": true,
          "internalType": "address",
          "name": "account",
          "type": "address"
        }
      ],
      "name": "MinterAdded",
      "type": "event"
    },
    {
      "anonymous": false,
      "inputs": [
        {
          "indexed": true,
          "internalType": "address",
          "name": "account",
          "type": "address"
        }
      ],
      "name": "MinterRemoved",
      "type": "event"
    },
    {
      "anonymous": false,
      "inputs": [
        {
          "indexed": true,
          "internalType": "address",
          "name": "from",
          "type": "address"
        },
        {
          "indexed": true,
          "internalType": "address",
          "name": "to",
          "type": "address"
        },
        {
          "indexed": true,
          "internalType": "uint256",
          "name": "tokenId",
          "type": "uint256"
        }
      ],
      "name": "Transfer",
      "type": "event"
    },
    {
      "constant": false,
      "inputs": [
        {
          "internalType": "address",
          "name": "account",
          "type": "address"
        }
      ],
      "name": "addMinter",
      "outputs": [],
      "payable": false,
      "stateMutability": "nonpayable",
      "type": "function"
    },
    {
      "constant": false,
      "inputs": [
        {
          "internalType": "address",
          "name": "to",
          "type": "address"
        },
        {
          "internalType": "uint256",
          "name": "tokenId",
          "type": "uint256"
        }
      ],
      "name": "approve",
      "outputs": [],
      "payable": false,
      "stateMutability": "nonpayable",
      "type": "function"
    },
    {
      "constant": true,
      "inputs": [
        {
          "internalType": "address",
          "name": "owner",
          "type": "address"
        }
      ],
      "name": "balanceOf",
      "outputs": [
        {
          "internalType": "uint256",
          "name": "",
          "type": "uint256"
        }
      ],
      "payable": false,
      "stateMutability": "view",
      "type": "function"
    },
    {
      "constant": true,
      "inputs": [
        {
          "internalType": "uint256",
          "name": "tokenId",
          "type": "uint256"
        }
      ],
      "name": "getApproved",
      "outputs": [
        {
          "internalType": "address",
          "name": "",
          "type": "address"
        }
      ],
      "payable": false,
      "stateMutability": "view",
      "type": "function"
    },
    {
      "constant": false,
      "inputs": [
        {
          "internalType": "string",
          "name": "name",
          "type": "string"
        },
        {
          "internalType": "string",
          "name": "symbol",
          "type": "string"
        }
      ],
      "name": "initialize",
      "outputs": [],
      "payable": false,
      "stateMutability": "nonpayable",
      "type": "function"
    },
    {
      "constant": false,
      "inputs": [],
      "name": "initialize",
      "outputs": [],
      "payable": false,
      "stateMutability": "nonpayable",
      "type": "function"
    },
    {
      "constant": false,
      "inputs": [
        {
          "internalType": "address",
          "name": "sender",
          "type": "address"
        }
      ],
      "name": "initialize",
      "outputs": [],
      "payable": false,
      "stateMutability": "nonpayable",
      "type": "function"
    },
    {
      "constant": true,
      "inputs": [
        {
          "internalType": "address",
          "name": "owner",
          "type": "address"
        },
        {
          "internalType": "address",
          "name": "operator",
          "type": "address"
        }
      ],
      "name": "isApprovedForAll",
      "outputs": [
        {
          "internalType": "bool",
          "name": "",
          "type": "bool"
        }
      ],
      "payable": false,
      "stateMutability": "view",
      "type": "function"
    },
    {
      "constant": true,
      "inputs": [
        {
          "internalType": "address",
          "name": "account",
          "type": "address"
        }
      ],
      "name": "isMinter",
      "outputs": [
        {
          "internalType": "bool",
          "name": "",
          "type": "bool"
        }
      ],
      "payable": false,
      "stateMutability": "view",
      "type": "function"
    },
    {
      "constant": false,
      "inputs": [
        {
          "internalType": "address",
          "name": "to",
          "type": "address"
        },
        {
          "internalType": "uint256",
          "name": "tokenId",
          "type": "uint256"
        }
      ],
      "name": "mint",
      "outputs": [
        {
          "internalType": "bool",
          "name": "",
          "type": "bool"
        }
      ],
      "payable": false,
      "stateMutability": "nonpayable",
      "type": "function"
    },
    {
      "constant": true,
      "inputs": [],
      "name": "name",
      "outputs": [
        {
          "internalType": "string",
          "name": "",
          "type": "string"
        }
      ],
      "payable": false,
      "stateMutability": "view",
      "type": "function"
    },
    {
      "constant": true,
      "inputs": [
        {
          "internalType": "uint256",
          "name": "tokenId",
          "type": "uint256"
        }
      ],
      "name": "ownerOf",
      "outputs": [
        {
          "internalType": "address",
          "name": "",
          "type": "address"
        }
      ],
      "payable": false,
      "stateMutability": "view",
      "type": "function"
    },
    {
      "constant": false,
      "inputs": [],
      "name": "renounceMinter",
      "outputs": [],
      "payable": false,
      "stateMutability": "nonpayable",
      "type": "function"
    },
    {
      "constant": false,
      "inputs": [
        {
          "internalType": "address",
          "name": "from",
          "type": "address"
        },
        {
          "internalType": "address",
          "name": "to",
          "type": "address"
        },
        {
          "internalType": "uint256",
          "name": "tokenId",
          "type": "uint256"
        }
      ],
      "name": "safeTransferFrom",
      "outputs": [],
      "payable": false,
      "stateMutability": "nonpayable",
      "type": "function"
    },
    {
      "constant": false,
      "inputs": [
        {
          "internalType": "address",
          "name": "from",
          "type": "address"
        },
        {
          "internalType": "address",
          "name": "to",
          "type": "address"
        },
        {
          "internalType": "uint256",
          "name": "tokenId",
          "type": "uint256"
        },
        {
          "internalType": "bytes",
          "name": "_data",
          "type": "bytes"
        }
      ],
      "name": "safeTransferFrom",
      "outputs": [],
      "payable": false,
      "stateMutability": "nonpayable",
      "type": "function"
    },
    {
      "constant": false,
      "inputs": [
        {
          "internalType": "address",
          "name": "to",
          "type": "address"
        },
        {
          "internalType": "bool",
          "name": "approved",
          "type": "bool"
        }
      ],
      "name": "setApprovalForAll",
      "outputs": [],
      "payable": false,
      "stateMutability": "nonpayable",
      "type": "function"
    },
    {
      "constant": true,
      "inputs": [
        {
          "internalType": "bytes4",
          "name": "interfaceId",
          "type": "bytes4"
        }
      ],
      "name": "supportsInterface",
      "outputs": [
        {
          "internalType": "bool",
          "name": "",
          "type": "bool"
        }
      ],
      "payable": false,
      "stateMutability": "view",
      "type": "function"
    },
    {
      "constant": true,
      "inputs": [],
      "name": "symbol",
      "outputs": [
        {
          "internalType": "string",
          "name": "",
          "type": "string"
        }
      ],
      "payable": false,
      "stateMutability": "view",
      "type": "function"
    },
    {
      "constant": true,
      "inputs": [
        {
          "internalType": "uint256",
          "name": "index",
          "type": "uint256"
        }
      ],
      "name": "tokenByIndex",
      "outputs": [
        {
          "internalType": "uint256",
          "name": "",
          "type": "uint256"
        }
      ],
      "payable": false,
      "stateMutability": "view",
      "type": "function"
    },
    {
      "constant": true,
      "inputs": [
        {
          "internalType": "address",
          "name": "owner",
          "type": "address"
        },
        {
          "internalType": "uint256",
          "name": "index",
          "type": "uint256"
        }
      ],
      "name": "tokenOfOwnerByIndex",
      "outputs": [
        {
          "internalType": "uint256",
          "name": "",
          "type": "uint256"
        }
      ],
      "payable": false,
      "stateMutability": "view",
      "type": "function"
    },
    {
      "constant": true,
      "inputs": [
        {
          "internalType": "uint256",
          "name": "tokenId",
          "type": "uint256"
        }
      ],
      "name": "tokenURI",
      "outputs": [
        {
          "internalType": "string",
          "name": "",
          "type": "string"
        }
      ],
      "payable": false,
      "stateMutability": "view",
      "type": "function"
    },
    {
      "constant": true,
      "inputs": [],
      "name": "totalSupply",
      "outputs": [
        {
          "internalType": "uint256",
          "name": "",
          "type": "uint256"
        }
      ],
      "payable": false,
      "stateMutability": "view",
      "type": "function"
    },
    {
      "constant": false,
      "inputs": [
        {
          "internalType": "address",
          "name": "from",
          "type": "address"
        },
        {
          "internalType": "address",
          "name": "to",
          "type": "address"
        },
        {
          "internalType": "uint256",
          "name": "tokenId",
          "type": "uint256"
        }
      ],
      "name": "transferFrom",
      "outputs": [],
      "payable": false,
      "stateMutability": "nonpayable",
      "type": "function"
    }
  ],
  "bytecode": "0x60806040525b5b61000b565b6138998061001a6000396000f3fe60806040523480156100115760006000fd5b50600436106101525760003560e01c80636352211e116100c4578063a22cb4651161007d578063a22cb4651461080f578063aa271e1a14610860578063b88d4fde146108bd578063c4d66de8146109ca578063c87b56dd14610a0f578063e985e9c514610ab857610152565b80636352211e1461066a57806370a08231146106d95780638129fc1c1461073257806395d89b411461073c578063983b2d56146107c0578063986502751461080557610152565b806323b872dd1161011657806323b872dd1461031e5780632f745c591461038d57806340c10f19146103f057806342842e0e146104575780634cd88b76146104c65780634f6ccce71461062757610152565b806301ffc9a71461015857806306fdde03146101be578063081812fc14610242578063095ea7b3146102b157806318160ddd1461030057610152565b60006000fd5b6101a46004803603602081101561016f5760006000fd5b8101908080357bffffffffffffffffffffffffffffffffffffffffffffffffffffffff19169060200190929190505050610b35565b604051808215151515815260200191505060405180910390f35b6101c6610ba5565b6040518080602001828103825283818151815260200191508051906020019080838360005b838110156102075780820151818401525b6020810190506101eb565b50505050905090810190601f1680156102345780820380516001836020036101000a031916815260200191505b509250505060405180910390f35b61026f600480360360208110156102595760006000fd5b8101908080359060200190929190505050610c4f565b604051808273ffffffffffffffffffffffffffffffffffffffff1673ffffffffffffffffffffffffffffffffffffffff16815260200191505060405180910390f35b6102fe600480360360408110156102c85760006000fd5b81019080803573ffffffffffffffffffffffffffffffffffffffff16906020019092919080359060200190929190505050610cfa565b005b610308610f01565b6040518082815260200191505060405180910390f35b61038b600480360360608110156103355760006000fd5b81019080803573ffffffffffffffffffffffffffffffffffffffff169060200190929190803573ffffffffffffffffffffffffffffffffffffffff16906020019092919080359060200190929190505050610f16565b005b6103da600480360360408110156103a45760006000fd5b81019080803573ffffffffffffffffffffffffffffffffffffffff16906020019092919080359060200190929190505050610fa1565b6040518082815260200191505060405180910390f35b61043d600480360360408110156104075760006000fd5b81019080803573ffffffffffffffffffffffffffffffffffffffff1690602001909291908035906020019092919050505061107a565b604051808215151515815260200191505060405180910390f35b6104c46004803603606081101561046e5760006000fd5b81019080803573ffffffffffffffffffffffffffffffffffffffff169060200190929190803573ffffffffffffffffffffffffffffffffffffffff1690602001909291908035906020019092919050505061110f565b005b610625600480360360408110156104dd5760006000fd5b81019080803590602001906401000000008111156104fb5760006000fd5b82018360208201111561050e5760006000fd5b803590602001918460018302840111640100000000831117156105315760006000fd5b91908080601f016020809104026020016040519081016040528093929190818152602001838380828437600081840152601f19601f82011690508083019250505050505050909091929090919290803590602001906401000000008111156105995760006000fd5b8201836020820111156105ac5760006000fd5b803590602001918460018302840111640100000000831117156105cf5760006000fd5b91908080601f016020809104026020016040519081016040528093929190818152602001838380828437600081840152601f19601f82011690508083019250505050505050909091929090919290505050611139565b005b6106546004803603602081101561063e5760006000fd5b81019080803590602001909291905050506112ac565b6040518082815260200191505060405180910390f35b610697600480360360208110156106815760006000fd5b8101908080359060200190929190505050611343565b604051808273ffffffffffffffffffffffffffffffffffffffff1673ffffffffffffffffffffffffffffffffffffffff16815260200191505060405180910390f35b61071c600480360360208110156106f05760006000fd5b81019080803573ffffffffffffffffffffffffffffffffffffffff169060200190929190505050611417565b6040518082815260200191505060405180910390f35b61073a611502565b005b6107446116ba565b6040518080602001828103825283818151815260200191508051906020019080838360005b838110156107855780820151818401525b602081019050610769565b50505050905090810190601f1680156107b25780820380516001836020036101000a031916815260200191505b509250505060405180910390f35b610803600480360360208110156107d75760006000fd5b81019080803573ffffffffffffffffffffffffffffffffffffffff169060200190929190505050611764565b005b61080d6117eb565b005b61085e600480360360408110156108265760006000fd5b81019080803573ffffffffffffffffffffffffffffffffffffffff16906020019092919080351515906020019092919050505061180a565b005b6108a3600480360360208110156108775760006000fd5b81019080803573ffffffffffffffffffffffffffffffffffffffff1690602001909291905050506119e0565b604051808215151515815260200191505060405180910390f35b6109c8600480360360808110156108d45760006000fd5b81019080803573ffffffffffffffffffffffffffffffffffffffff169060200190929190803573ffffffffffffffffffffffffffffffffffffffff169060200190929190803590602001909291908035906020019064010000000081111561093c5760006000fd5b82018360208201111561094f5760006000fd5b803590602001918460018302840111640100000000831117156109725760006000fd5b91908080601f016020809104026020016040519081016040528093929190818152602001838380828437600081840152601f19601f82011690508083019250505050505050909091929090919290505050611a06565b005b610a0d600480360360208110156109e15760006000fd5b81019080803573ffffffffffffffffffffffffffffffffffffffff169060200190929190505050611a87565b005b610a3c60048036036020811015610a265760006000fd5b8101908080359060200190929190505050611bbe565b6040518080602001828103825283818151815260200191508051906020019080838360005b83811015610a7d5780820151818401525b602081019050610a61565b50505050905090810190601f168015610aaa5780820380516001836020036101000a031916815260200191505b509250505060405180910390f35b610b1b60048036036040811015610acf5760006000fd5b81019080803573ffffffffffffffffffffffffffffffffffffffff169060200190929190803573ffffffffffffffffffffffffffffffffffffffff169060200190929190505050611ce4565b604051808215151515815260200191505060405180910390f35b600060336000506000837bffffffffffffffffffffffffffffffffffffffffffffffffffffffff19167bffffffffffffffffffffffffffffffffffffffffffffffffffffffff1916815260200190815260200160002060009054906101000a900460ff169050610ba0565b919050565b606060d26000508054600181600116156101000203166002900480601f016020809104026020016040519081016040528092919081815260200182805460018160011615610100020316600290048015610c405780601f10610c1557610100808354040283529160200191610c40565b820191906000526020600020905b815481529060010190602001808311610c2357829003601f168201915b50505050509050610c4c565b90565b6000610c6082611d8363ffffffff16565b1515610cb7576040517f08c379a000000000000000000000000000000000000000000000000000000000815260040180806020018281038252602c815260200180613713602c913960400191505060405180910390fd5b6067600050600083815260200190815260200160002060009054906101000a900473ffffffffffffffffffffffffffffffffffffffff169050610cf5565b919050565b6000610d0b8261134363ffffffff16565b90508073ffffffffffffffffffffffffffffffffffffffff168373ffffffffffffffffffffffffffffffffffffffff1614151515610d94576040517f08c379a00000000000000000000000000000000000000000000000000000000081526004018080602001828103825260218152602001806137e76021913960400191505060405180910390fd5b8073ffffffffffffffffffffffffffffffffffffffff16610db9611dff63ffffffff16565b73ffffffffffffffffffffffffffffffffffffffff161480610df45750610df381610de8611dff63ffffffff16565b611ce463ffffffff16565b5b1515610e4b576040517f08c379a00000000000000000000000000000000000000000000000000000000081526004018080602001828103825260388152602001806136376038913960400191505060405180910390fd5b826067600050600084815260200190815260200160002060006101000a81548173ffffffffffffffffffffffffffffffffffffffff021916908373ffffffffffffffffffffffffffffffffffffffff160217905550818373ffffffffffffffffffffffffffffffffffffffff168273ffffffffffffffffffffffffffffffffffffffff167f8c5be1e5ebec7d5bd14f71427d1e84f3dd0314c0f7b2291e5b200ac8c7c3b92560405160405180910390a4505b5050565b6000609e600050805490509050610f13565b90565b610f33610f27611dff63ffffffff16565b82611e0c63ffffffff16565b1515610f8a576040517f08c379a00000000000000000000000000000000000000000000000000000000081526004018080602001828103825260318152602001806138086031913960400191505060405180910390fd5b610f9b838383611f2063ffffffff16565b5b505050565b6000610fb28361141763ffffffff16565b8210151561100b576040517f08c379a000000000000000000000000000000000000000000000000000000000815260040180806020018281038252602b81526020018061358a602b913960400191505060405180910390fd5b609c60005060008473ffffffffffffffffffffffffffffffffffffffff1673ffffffffffffffffffffffffffffffffffffffff1681526020019081526020016000206000508281548110151561105d57fe5b906000526020600020900160005b50549050611074565b92915050565b600061109861108d611dff63ffffffff16565b6119e063ffffffff16565b15156110ef576040517f08c379a00000000000000000000000000000000000000000000000000000000081526004018080602001828103825260308152602001806136c26030913960400191505060405180910390fd5b6110ff8383611f5763ffffffff16565b60019050611108565b5b92915050565b61113383838360405180602001604052806000815260200150611a0663ffffffff16565b5b505050565b600060019054906101000a900460ff168061115e575061115d611f8b63ffffffff16565b5b806111765750600060009054906101000a900460ff16155b15156111cd576040517f08c379a000000000000000000000000000000000000000000000000000000000815260040180806020018281038252602e815260200180613761602e913960400191505060405180910390fd5b6000600060019054906101000a900460ff16159050801561121f576001600060016101000a81548160ff0219169083151502179055506001600060006101000a81548160ff0219169083151502179055505b61122d611fa363ffffffff16565b15156112395760006000fd5b8260d260005090805190602001906112529291906134ad565b508160d3600050908051906020019061126c9291906134ad565b50611283635b5e139f60e01b611fc563ffffffff16565b5b80156112a6576000600060016101000a81548160ff0219169083151502179055505b505b5050565b60006112bc610f0163ffffffff16565b82101515611315576040517f08c379a000000000000000000000000000000000000000000000000000000000815260040180806020018281038252602c815260200180613839602c913960400191505060405180910390fd5b609e6000508281548110151561132757fe5b906000526020600020900160005b5054905061133e565b919050565b600060006066600050600084815260200190815260200160002060009054906101000a900473ffffffffffffffffffffffffffffffffffffffff169050600073ffffffffffffffffffffffffffffffffffffffff168173ffffffffffffffffffffffffffffffffffffffff1614151515611408576040517f08c379a00000000000000000000000000000000000000000000000000000000081526004018080602001828103825260298152602001806136996029913960400191505060405180910390fd5b8091505061141256505b919050565b6000600073ffffffffffffffffffffffffffffffffffffffff168273ffffffffffffffffffffffffffffffffffffffff16141515156114a1576040517f08c379a000000000000000000000000000000000000000000000000000000000815260040180806020018281038252602a81526020018061366f602a913960400191505060405180910390fd5b6114f6606860005060008473ffffffffffffffffffffffffffffffffffffffff1673ffffffffffffffffffffffffffffffffffffffff1681526020019081526020016000206000506120d7909063ffffffff16565b90506114fd565b919050565b600060019054906101000a900460ff16806115275750611526611f8b63ffffffff16565b5b8061153f5750600060009054906101000a900460ff16155b1515611596576040517f08c379a000000000000000000000000000000000000000000000000000000000815260040180806020018281038252602e815260200180613761602e913960400191505060405180910390fd5b6000600060019054906101000a900460ff1615905080156115e8576001600060016101000a81548160ff0219169083151502179055506001600060006101000a81548160ff0219169083151502179055505b6115f66120ed63ffffffff16565b61160461221e63ffffffff16565b6116846040518060400160405280600d81526020017f43727970746f43686f636f626f000000000000000000000000000000000000008152602001506040518060400160405280600381526020017f434331000000000000000000000000000000000000000000000000000000000081526020015061113963ffffffff16565b61169333611a8763ffffffff16565b5b80156116b6576000600060016101000a81548160ff0219169083151502179055505b505b565b606060d36000508054600181600116156101000203166002900480601f0160208091040260200160405190810160405280929190818152602001828054600181600116156101000203166002900480156117555780601f1061172a57610100808354040283529160200191611755565b820191906000526020600020905b81548152906001019060200180831161173857829003601f168201915b50505050509050611761565b90565b611780611775611dff63ffffffff16565b6119e063ffffffff16565b15156117d7576040517f08c379a00000000000000000000000000000000000000000000000000000000081526004018080602001828103825260308152602001806136c26030913960400191505060405180910390fd5b6117e68161235b63ffffffff16565b5b5b50565b6118076117fc611dff63ffffffff16565b6123ba63ffffffff16565b5b565b611818611dff63ffffffff16565b73ffffffffffffffffffffffffffffffffffffffff168273ffffffffffffffffffffffffffffffffffffffff16141515156118be576040517f08c379a00000000000000000000000000000000000000000000000000000000081526004018080602001828103825260198152602001807f4552433732313a20617070726f766520746f2063616c6c65720000000000000081526020015060200191505060405180910390fd5b80606960005060006118d4611dff63ffffffff16565b73ffffffffffffffffffffffffffffffffffffffff1673ffffffffffffffffffffffffffffffffffffffff16815260200190815260200160002060005060008473ffffffffffffffffffffffffffffffffffffffff1673ffffffffffffffffffffffffffffffffffffffff16815260200190815260200160002060006101000a81548160ff0219169083151502179055508173ffffffffffffffffffffffffffffffffffffffff1661198a611dff63ffffffff16565b73ffffffffffffffffffffffffffffffffffffffff167f17307eab39ab6107e8899845ad3d59bd9653f200f220920489ca2b5937696c3183604051808215151515815260200191505060405180910390a35b5050565b60006119fa8261013960005061241990919063ffffffff16565b9050611a01565b919050565b611a17848484610f1663ffffffff16565b611a298484848461250263ffffffff16565b1515611a80576040517f08c379a00000000000000000000000000000000000000000000000000000000081526004018080602001828103825260328152602001806135b56032913960400191505060405180910390fd5b5b50505050565b600060019054906101000a900460ff1680611aac5750611aab611f8b63ffffffff16565b5b80611ac45750600060009054906101000a900460ff16155b1515611b1b576040517f08c379a000000000000000000000000000000000000000000000000000000000815260040180806020018281038252602e815260200180613761602e913960400191505060405180910390fd5b6000600060019054906101000a900460ff161590508015611b6d576001600060016101000a81548160ff0219169083151502179055506001600060006101000a81548160ff0219169083151502179055505b611b7b611fa363ffffffff16565b1515611b875760006000fd5b611b968261270b63ffffffff16565b5b8015611bb9576000600060016101000a81548160ff0219169083151502179055505b505b50565b6060611bcf82611d8363ffffffff16565b1515611c26576040517f08c379a000000000000000000000000000000000000000000000000000000000815260040180806020018281038252602f8152602001806137b8602f913960400191505060405180910390fd5b60d460005060008381526020019081526020016000206000508054600181600116156101000203166002900480601f016020809104026020016040519081016040528092919081815260200182805460018160011615610100020316600290048015611cd35780601f10611ca857610100808354040283529160200191611cd3565b820191906000526020600020905b815481529060010190602001808311611cb657829003601f168201915b50505050509050611cdf565b919050565b6000606960005060008473ffffffffffffffffffffffffffffffffffffffff1673ffffffffffffffffffffffffffffffffffffffff16815260200190815260200160002060005060008373ffffffffffffffffffffffffffffffffffffffff1673ffffffffffffffffffffffffffffffffffffffff16815260200190815260200160002060009054906101000a900460ff169050611d7d565b92915050565b600060006066600050600084815260200190815260200160002060009054906101000a900473ffffffffffffffffffffffffffffffffffffffff169050600073ffffffffffffffffffffffffffffffffffffffff168173ffffffffffffffffffffffffffffffffffffffff161415915050611dfa56505b919050565b6000339050611e09565b90565b6000611e1d82611d8363ffffffff16565b1515611e74576040517f08c379a000000000000000000000000000000000000000000000000000000000815260040180806020018281038252602c81526020018061360b602c913960400191505060405180910390fd5b6000611e858361134363ffffffff16565b90508073ffffffffffffffffffffffffffffffffffffffff168473ffffffffffffffffffffffffffffffffffffffff161480611efa57508373ffffffffffffffffffffffffffffffffffffffff16611ee284610c4f63ffffffff16565b73ffffffffffffffffffffffffffffffffffffffff16145b80611f115750611f108185611ce463ffffffff16565b5b915050611f1a56505b92915050565b611f3183838361283e63ffffffff16565b611f418382612ac963ffffffff16565b611f518282612ca263ffffffff16565b5b505050565b611f678282612d8263ffffffff16565b611f778282612ca263ffffffff16565b611f8681612fbc63ffffffff16565b5b5050565b60006000303b905060008114915050611fa056505b90565b6000611fbb6380ac58cd60e01b610b3563ffffffff16565b9050611fc2565b90565b63ffffffff60e01b817bffffffffffffffffffffffffffffffffffffffffffffffffffffffff191614151515612066576040517f08c379a000000000000000000000000000000000000000000000000000000000815260040180806020018281038252601c8152602001807f4552433136353a20696e76616c696420696e746572666163652069640000000081526020015060200191505060405180910390fd5b600160336000506000837bffffffffffffffffffffffffffffffffffffffffffffffffffffffff19167bffffffffffffffffffffffffffffffffffffffffffffffffffffffff1916815260200190815260200160002060006101000a81548160ff0219169083151502179055505b50565b6000816000016000505490506120e8565b919050565b600060019054906101000a900460ff16806121125750612111611f8b63ffffffff16565b5b8061212a5750600060009054906101000a900460ff16155b1515612181576040517f08c379a000000000000000000000000000000000000000000000000000000000815260040180806020018281038252602e815260200180613761602e913960400191505060405180910390fd5b6000600060019054906101000a900460ff1615905080156121d3576001600060016101000a81548160ff0219169083151502179055506001600060006101000a81548160ff0219169083151502179055505b6121e161301b63ffffffff16565b6121f76380ac58cd60e01b611fc563ffffffff16565b5b801561221a576000600060016101000a81548160ff0219169083151502179055505b505b565b600060019054906101000a900460ff16806122435750612242611f8b63ffffffff16565b5b8061225b5750600060009054906101000a900460ff16155b15156122b2576040517f08c379a000000000000000000000000000000000000000000000000000000000815260040180806020018281038252602e815260200180613761602e913960400191505060405180910390fd5b6000600060019054906101000a900460ff161590508015612304576001600060016101000a81548160ff0219169083151502179055506001600060006101000a81548160ff0219169083151502179055505b612312611fa363ffffffff16565b151561231e5760006000fd5b61233463780e9d6360e01b611fc563ffffffff16565b5b8015612357576000600060016101000a81548160ff0219169083151502179055505b505b565b6123738161013960005061313e90919063ffffffff16565b8073ffffffffffffffffffffffffffffffffffffffff167f6ae172837ea30b801fbfcdd4108aa1d5bf8ff775444fd70256b44e6bf3dfc3f660405160405180910390a25b50565b6123d28161013960005061322890919063ffffffff16565b8073ffffffffffffffffffffffffffffffffffffffff167fe94479a9f7e1952cc78f2d6baab678adc1b772d936c6583def489e524cb6669260405160405180910390a25b50565b6000600073ffffffffffffffffffffffffffffffffffffffff168273ffffffffffffffffffffffffffffffffffffffff16141515156124a3576040517f08c379a000000000000000000000000000000000000000000000000000000000815260040180806020018281038252602281526020018061373f6022913960400191505060405180910390fd5b8260000160005060008373ffffffffffffffffffffffffffffffffffffffff1673ffffffffffffffffffffffffffffffffffffffff16815260200190815260200160002060009054906101000a900460ff1690506124fc565b92915050565b600061252b8473ffffffffffffffffffffffffffffffffffffffff166132f1909063ffffffff16565b151561253a5760019050612703565b60008473ffffffffffffffffffffffffffffffffffffffff1663150b7a02612566611dff63ffffffff16565b8887876040518563ffffffff1660e01b8152600401808573ffffffffffffffffffffffffffffffffffffffff1673ffffffffffffffffffffffffffffffffffffffff1681526020018473ffffffffffffffffffffffffffffffffffffffff1673ffffffffffffffffffffffffffffffffffffffff16815260200183815260200180602001828103825283818151815260200191508051906020019080838360005b838110156126235780820151818401525b602081019050612607565b50505050905090810190601f1680156126505780820380516001836020036101000a031916815260200191505b5095505050505050602060405180830381600087803b1580156126735760006000fd5b505af1158015612688573d600060003e3d6000fd5b505050506040513d602081101561269f5760006000fd5b8101908080519060200190929190505050905063150b7a0260e01b7bffffffffffffffffffffffffffffffffffffffffffffffffffffffff1916817bffffffffffffffffffffffffffffffffffffffffffffffffffffffff19161491505061270356505b949350505050565b600060019054906101000a900460ff1680612730575061272f611f8b63ffffffff16565b5b806127485750600060009054906101000a900460ff16155b151561279f576040517f08c379a000000000000000000000000000000000000000000000000000000000815260040180806020018281038252602e815260200180613761602e913960400191505060405180910390fd5b6000600060019054906101000a900460ff1615905080156127f1576001600060016101000a81548160ff0219169083151502179055506001600060006101000a81548160ff0219169083151502179055505b612800826119e063ffffffff16565b1515612816576128158261235b63ffffffff16565b5b5b8015612839576000600060016101000a81548160ff0219169083151502179055505b505b50565b8273ffffffffffffffffffffffffffffffffffffffff166128648261134363ffffffff16565b73ffffffffffffffffffffffffffffffffffffffff161415156128d2576040517f08c379a000000000000000000000000000000000000000000000000000000000815260040180806020018281038252602981526020018061378f6029913960400191505060405180910390fd5b600073ffffffffffffffffffffffffffffffffffffffff168273ffffffffffffffffffffffffffffffffffffffff161415151561295a576040517f08c379a00000000000000000000000000000000000000000000000000000000081526004018080602001828103825260248152602001806135e76024913960400191505060405180910390fd5b6129698161330b63ffffffff16565b6129be606860005060008573ffffffffffffffffffffffffffffffffffffffff1673ffffffffffffffffffffffffffffffffffffffff1681526020019081526020016000206000506133d2909063ffffffff16565b612a13606860005060008473ffffffffffffffffffffffffffffffffffffffff1673ffffffffffffffffffffffffffffffffffffffff1681526020019081526020016000206000506133fe909063ffffffff16565b816066600050600083815260200190815260200160002060006101000a81548173ffffffffffffffffffffffffffffffffffffffff021916908373ffffffffffffffffffffffffffffffffffffffff160217905550808273ffffffffffffffffffffffffffffffffffffffff168473ffffffffffffffffffffffffffffffffffffffff167fddf252ad1be2c89b69c2b068fc378daa952ba7f163c4a11628f55a4df523b3ef60405160405180910390a45b505050565b6000612b276001609c60005060008673ffffffffffffffffffffffffffffffffffffffff1673ffffffffffffffffffffffffffffffffffffffff1681526020019081526020016000206000508054905061341990919063ffffffff16565b90506000609d60005060008481526020019081526020016000206000505490508181141515612c40576000609c60005060008673ffffffffffffffffffffffffffffffffffffffff1673ffffffffffffffffffffffffffffffffffffffff16815260200190815260200160002060005083815481101515612ba457fe5b906000526020600020900160005b5054905080609c60005060008773ffffffffffffffffffffffffffffffffffffffff1673ffffffffffffffffffffffffffffffffffffffff16815260200190815260200160002060005083815481101515612c0957fe5b906000526020600020900160005b5081909090555081609d6000506000838152602001908152602001600020600050819090905550505b609c60005060008573ffffffffffffffffffffffffffffffffffffffff1673ffffffffffffffffffffffffffffffffffffffff1681526020019081526020016000206000508054809190600190039090612c9a9190613532565b5050505b5050565b609c60005060008373ffffffffffffffffffffffffffffffffffffffff1673ffffffffffffffffffffffffffffffffffffffff16815260200190815260200160002060005080549050609d6000506000838152602001908152602001600020600050819090905550609c60005060008373ffffffffffffffffffffffffffffffffffffffff1673ffffffffffffffffffffffffffffffffffffffff1681526020019081526020016000206000508190806001815401808255809150509060018203906000526020600020900160005b9091929091909150909055505b5050565b600073ffffffffffffffffffffffffffffffffffffffff168273ffffffffffffffffffffffffffffffffffffffff1614151515612e2a576040517f08c379a00000000000000000000000000000000000000000000000000000000081526004018080602001828103825260208152602001807f4552433732313a206d696e7420746f20746865207a65726f206164647265737381526020015060200191505060405180910390fd5b612e3981611d8363ffffffff16565b151515612eb1576040517f08c379a000000000000000000000000000000000000000000000000000000000815260040180806020018281038252601c8152602001807f4552433732313a20746f6b656e20616c7265616479206d696e7465640000000081526020015060200191505060405180910390fd5b816066600050600083815260200190815260200160002060006101000a81548173ffffffffffffffffffffffffffffffffffffffff021916908373ffffffffffffffffffffffffffffffffffffffff160217905550612f5b606860005060008473ffffffffffffffffffffffffffffffffffffffff1673ffffffffffffffffffffffffffffffffffffffff1681526020019081526020016000206000506133fe909063ffffffff16565b808273ffffffffffffffffffffffffffffffffffffffff16600073ffffffffffffffffffffffffffffffffffffffff167fddf252ad1be2c89b69c2b068fc378daa952ba7f163c4a11628f55a4df523b3ef60405160405180910390a45b5050565b609e60005080549050609f6000506000838152602001908152602001600020600050819090905550609e6000508190806001815401808255809150509060018203906000526020600020900160005b9091929091909150909055505b50565b600060019054906101000a900460ff1680613040575061303f611f8b63ffffffff16565b5b806130585750600060009054906101000a900460ff16155b15156130af576040517f08c379a000000000000000000000000000000000000000000000000000000000815260040180806020018281038252602e815260200180613761602e913960400191505060405180910390fd5b6000600060019054906101000a900460ff161590508015613101576001600060016101000a81548160ff0219169083151502179055506001600060006101000a81548160ff0219169083151502179055505b6131176301ffc9a760e01b611fc563ffffffff16565b5b801561313a576000600060016101000a81548160ff0219169083151502179055505b505b565b61314e828261241963ffffffff16565b1515156131c6576040517f08c379a000000000000000000000000000000000000000000000000000000000815260040180806020018281038252601f8152602001807f526f6c65733a206163636f756e7420616c72656164792068617320726f6c650081526020015060200191505060405180910390fd5b60018260000160005060008373ffffffffffffffffffffffffffffffffffffffff1673ffffffffffffffffffffffffffffffffffffffff16815260200190815260200160002060006101000a81548160ff0219169083151502179055505b5050565b613238828261241963ffffffff16565b151561328f576040517f08c379a00000000000000000000000000000000000000000000000000000000081526004018080602001828103825260218152602001806136f26021913960400191505060405180910390fd5b60008260000160005060008373ffffffffffffffffffffffffffffffffffffffff1673ffffffffffffffffffffffffffffffffffffffff16815260200190815260200160002060006101000a81548160ff0219169083151502179055505b5050565b60006000823b90506000811191505061330656505b919050565b600073ffffffffffffffffffffffffffffffffffffffff166067600050600083815260200190815260200160002060009054906101000a900473ffffffffffffffffffffffffffffffffffffffff1673ffffffffffffffffffffffffffffffffffffffff161415156133ce5760006067600050600083815260200190815260200160002060006101000a81548173ffffffffffffffffffffffffffffffffffffffff021916908373ffffffffffffffffffffffffffffffffffffffff1602179055505b5b50565b6133ed6001826000016000505461341990919063ffffffff16565b816000016000508190909055505b50565b60018160000160008282825054019250508190909055505b50565b6000828211151515613496576040517f08c379a000000000000000000000000000000000000000000000000000000000815260040180806020018281038252601e8152602001807f536166654d6174683a207375627472616374696f6e206f766572666c6f77000081526020015060200191505060405180910390fd5b60008284039050809150506134a756505b92915050565b828054600181600116156101000203166002900490600052602060002090601f016020900481019282601f106134ee57805160ff1916838001178555613521565b82800160010185558215613521579182015b828111156135205782518260005090905591602001919060010190613500565b5b50905061352e919061355e565b5090565b81548183558181111561355957818360005260206000209182019101613558919061355e565b5b505050565b6135869190613568565b808211156135825760008181506000905550600101613568565b5090565b9056fe455243373231456e756d657261626c653a206f776e657220696e646578206f7574206f6620626f756e64734552433732313a207472616e7366657220746f206e6f6e20455243373231526563656976657220696d706c656d656e7465724552433732313a207472616e7366657220746f20746865207a65726f20616464726573734552433732313a206f70657261746f7220717565727920666f72206e6f6e6578697374656e7420746f6b656e4552433732313a20617070726f76652063616c6c6572206973206e6f74206f776e6572206e6f7220617070726f76656420666f7220616c6c4552433732313a2062616c616e636520717565727920666f7220746865207a65726f20616464726573734552433732313a206f776e657220717565727920666f72206e6f6e6578697374656e7420746f6b656e4d696e746572526f6c653a2063616c6c657220646f6573206e6f74206861766520746865204d696e74657220726f6c65526f6c65733a206163636f756e7420646f6573206e6f74206861766520726f6c654552433732313a20617070726f76656420717565727920666f72206e6f6e6578697374656e7420746f6b656e526f6c65733a206163636f756e7420697320746865207a65726f2061646472657373436f6e747261637420696e7374616e63652068617320616c7265616479206265656e20696e697469616c697a65644552433732313a207472616e73666572206f6620746f6b656e2074686174206973206e6f74206f776e4552433732314d657461646174613a2055524920717565727920666f72206e6f6e6578697374656e7420746f6b656e4552433732313a20617070726f76616c20746f2063757272656e74206f776e65724552433732313a207472616e736665722063616c6c6572206973206e6f74206f776e6572206e6f7220617070726f766564455243373231456e756d657261626c653a20676c6f62616c20696e646578206f7574206f6620626f756e6473a265627a7a723158208097a37a4cb906760c25ebcaa5b05591d42271068c1ab271a4f5e2274374b3d064736f6c634300050c0032",
  "compiler": {
    "name": "solc",
    "version": "0.5.12+commit.7709ece9.Emscripten.clang",
    "optimizer": {},
    "evmVersion": "constantinople"
  }
}