{
  "fileName": "ERC721Full.sol",
  "contractName": "ERC721Full",
  "source": "pragma solidity ^0.5.0;\n\nimport \"@openzeppelin/upgrades/contracts/Initializable.sol\";\nimport \"./ERC721.sol\";\nimport \"./ERC721Enumerable.sol\";\nimport \"./ERC721Metadata.sol\";\n\n/**\n * @title Full ERC721 Token\n * This implementation includes all the required and some optional functionality of the ERC721 standard\n * Moreover, it includes approve all functionality using operator terminology\n * @dev see https://eips.ethereum.org/EIPS/eip-721\n */\ncontract ERC721Full is Initializable, ERC721, ERC721Enumerable, ERC721Metadata {\n    uint256[50] private ______gap;\n}\n",
  "sourcePath": "@openzeppelin/contracts-ethereum-package/contracts/token/ERC721/ERC721Full.sol",
  "abi": [
    {
      "anonymous": false,
      "inputs": [
        {
          "indexed": true,
          "internalType": "address",
          "name": "owner",
          "type": "address"
        },
        {
          "indexed": true,
          "internalType": "address",
          "name": "approved",
          "type": "address"
        },
        {
          "indexed": true,
          "internalType": "uint256",
          "name": "tokenId",
          "type": "uint256"
        }
      ],
      "name": "Approval",
      "type": "event"
    },
    {
      "anonymous": false,
      "inputs": [
        {
          "indexed": true,
          "internalType": "address",
          "name": "owner",
          "type": "address"
        },
        {
          "indexed": true,
          "internalType": "address",
          "name": "operator",
          "type": "address"
        },
        {
          "indexed": false,
          "internalType": "bool",
          "name": "approved",
          "type": "bool"
        }
      ],
      "name": "ApprovalForAll",
      "type": "event"
    },
    {
      "anonymous": false,
      "inputs": [
        {
          "indexed": true,
          "internalType": "address",
          "name": "from",
          "type": "address"
        },
        {
          "indexed": true,
          "internalType": "address",
          "name": "to",
          "type": "address"
        },
        {
          "indexed": true,
          "internalType": "uint256",
          "name": "tokenId",
          "type": "uint256"
        }
      ],
      "name": "Transfer",
      "type": "event"
    },
    {
      "constant": false,
      "inputs": [
        {
          "internalType": "address",
          "name": "to",
          "type": "address"
        },
        {
          "internalType": "uint256",
          "name": "tokenId",
          "type": "uint256"
        }
      ],
      "name": "approve",
      "outputs": [],
      "payable": false,
      "stateMutability": "nonpayable",
      "type": "function"
    },
    {
      "constant": true,
      "inputs": [
        {
          "internalType": "address",
          "name": "owner",
          "type": "address"
        }
      ],
      "name": "balanceOf",
      "outputs": [
        {
          "internalType": "uint256",
          "name": "",
          "type": "uint256"
        }
      ],
      "payable": false,
      "stateMutability": "view",
      "type": "function"
    },
    {
      "constant": true,
      "inputs": [
        {
          "internalType": "uint256",
          "name": "tokenId",
          "type": "uint256"
        }
      ],
      "name": "getApproved",
      "outputs": [
        {
          "internalType": "address",
          "name": "",
          "type": "address"
        }
      ],
      "payable": false,
      "stateMutability": "view",
      "type": "function"
    },
    {
      "constant": false,
      "inputs": [
        {
          "internalType": "string",
          "name": "name",
          "type": "string"
        },
        {
          "internalType": "string",
          "name": "symbol",
          "type": "string"
        }
      ],
      "name": "initialize",
      "outputs": [],
      "payable": false,
      "stateMutability": "nonpayable",
      "type": "function"
    },
    {
      "constant": false,
      "inputs": [],
      "name": "initialize",
      "outputs": [],
      "payable": false,
      "stateMutability": "nonpayable",
      "type": "function"
    },
    {
      "constant": true,
      "inputs": [
        {
          "internalType": "address",
          "name": "owner",
          "type": "address"
        },
        {
          "internalType": "address",
          "name": "operator",
          "type": "address"
        }
      ],
      "name": "isApprovedForAll",
      "outputs": [
        {
          "internalType": "bool",
          "name": "",
          "type": "bool"
        }
      ],
      "payable": false,
      "stateMutability": "view",
      "type": "function"
    },
    {
      "constant": true,
      "inputs": [],
      "name": "name",
      "outputs": [
        {
          "internalType": "string",
          "name": "",
          "type": "string"
        }
      ],
      "payable": false,
      "stateMutability": "view",
      "type": "function"
    },
    {
      "constant": true,
      "inputs": [
        {
          "internalType": "uint256",
          "name": "tokenId",
          "type": "uint256"
        }
      ],
      "name": "ownerOf",
      "outputs": [
        {
          "internalType": "address",
          "name": "",
          "type": "address"
        }
      ],
      "payable": false,
      "stateMutability": "view",
      "type": "function"
    },
    {
      "constant": false,
      "inputs": [
        {
          "internalType": "address",
          "name": "from",
          "type": "address"
        },
        {
          "internalType": "address",
          "name": "to",
          "type": "address"
        },
        {
          "internalType": "uint256",
          "name": "tokenId",
          "type": "uint256"
        }
      ],
      "name": "safeTransferFrom",
      "outputs": [],
      "payable": false,
      "stateMutability": "nonpayable",
      "type": "function"
    },
    {
      "constant": false,
      "inputs": [
        {
          "internalType": "address",
          "name": "from",
          "type": "address"
        },
        {
          "internalType": "address",
          "name": "to",
          "type": "address"
        },
        {
          "internalType": "uint256",
          "name": "tokenId",
          "type": "uint256"
        },
        {
          "internalType": "bytes",
          "name": "_data",
          "type": "bytes"
        }
      ],
      "name": "safeTransferFrom",
      "outputs": [],
      "payable": false,
      "stateMutability": "nonpayable",
      "type": "function"
    },
    {
      "constant": false,
      "inputs": [
        {
          "internalType": "address",
          "name": "to",
          "type": "address"
        },
        {
          "internalType": "bool",
          "name": "approved",
          "type": "bool"
        }
      ],
      "name": "setApprovalForAll",
      "outputs": [],
      "payable": false,
      "stateMutability": "nonpayable",
      "type": "function"
    },
    {
      "constant": true,
      "inputs": [
        {
          "internalType": "bytes4",
          "name": "interfaceId",
          "type": "bytes4"
        }
      ],
      "name": "supportsInterface",
      "outputs": [
        {
          "internalType": "bool",
          "name": "",
          "type": "bool"
        }
      ],
      "payable": false,
      "stateMutability": "view",
      "type": "function"
    },
    {
      "constant": true,
      "inputs": [],
      "name": "symbol",
      "outputs": [
        {
          "internalType": "string",
          "name": "",
          "type": "string"
        }
      ],
      "payable": false,
      "stateMutability": "view",
      "type": "function"
    },
    {
      "constant": true,
      "inputs": [
        {
          "internalType": "uint256",
          "name": "index",
          "type": "uint256"
        }
      ],
      "name": "tokenByIndex",
      "outputs": [
        {
          "internalType": "uint256",
          "name": "",
          "type": "uint256"
        }
      ],
      "payable": false,
      "stateMutability": "view",
      "type": "function"
    },
    {
      "constant": true,
      "inputs": [
        {
          "internalType": "address",
          "name": "owner",
          "type": "address"
        },
        {
          "internalType": "uint256",
          "name": "index",
          "type": "uint256"
        }
      ],
      "name": "tokenOfOwnerByIndex",
      "outputs": [
        {
          "internalType": "uint256",
          "name": "",
          "type": "uint256"
        }
      ],
      "payable": false,
      "stateMutability": "view",
      "type": "function"
    },
    {
      "constant": true,
      "inputs": [
        {
          "internalType": "uint256",
          "name": "tokenId",
          "type": "uint256"
        }
      ],
      "name": "tokenURI",
      "outputs": [
        {
          "internalType": "string",
          "name": "",
          "type": "string"
        }
      ],
      "payable": false,
      "stateMutability": "view",
      "type": "function"
    },
    {
      "constant": true,
      "inputs": [],
      "name": "totalSupply",
      "outputs": [
        {
          "internalType": "uint256",
          "name": "",
          "type": "uint256"
        }
      ],
      "payable": false,
      "stateMutability": "view",
      "type": "function"
    },
    {
      "constant": false,
      "inputs": [
        {
          "internalType": "address",
          "name": "from",
          "type": "address"
        },
        {
          "internalType": "address",
          "name": "to",
          "type": "address"
        },
        {
          "internalType": "uint256",
          "name": "tokenId",
          "type": "uint256"
        }
      ],
      "name": "transferFrom",
      "outputs": [],
      "payable": false,
      "stateMutability": "nonpayable",
      "type": "function"
    }
  ],
  "bytecode": "0x60806040525b5b61000b565b6128998061001a6000396000f3fe60806040523480156100115760006000fd5b506004361061011b5760003560e01c80634f6ccce7116100a357806395d89b411161007257806395d89b411461069e578063a22cb46514610722578063b88d4fde14610773578063c87b56dd14610880578063e985e9c5146109295761011b565b80634f6ccce7146105895780636352211e146105cc57806370a082311461063b5780638129fc1c146106945761011b565b806318160ddd116100ea57806318160ddd146102c957806323b872dd146102e75780632f745c591461035657806342842e0e146103b95780634cd88b76146104285761011b565b806301ffc9a71461012157806306fdde0314610187578063081812fc1461020b578063095ea7b31461027a5761011b565b60006000fd5b61016d600480360360208110156101385760006000fd5b8101908080357bffffffffffffffffffffffffffffffffffffffffffffffffffffffff191690602001909291905050506109a6565b604051808215151515815260200191505060405180910390f35b61018f610a16565b6040518080602001828103825283818151815260200191508051906020019080838360005b838110156101d05780820151818401525b6020810190506101b4565b50505050905090810190601f1680156101fd5780820380516001836020036101000a031916815260200191505b509250505060405180910390f35b610238600480360360208110156102225760006000fd5b8101908080359060200190929190505050610ac0565b604051808273ffffffffffffffffffffffffffffffffffffffff1673ffffffffffffffffffffffffffffffffffffffff16815260200191505060405180910390f35b6102c7600480360360408110156102915760006000fd5b81019080803573ffffffffffffffffffffffffffffffffffffffff16906020019092919080359060200190929190505050610b6b565b005b6102d1610d72565b6040518082815260200191505060405180910390f35b610354600480360360608110156102fe5760006000fd5b81019080803573ffffffffffffffffffffffffffffffffffffffff169060200190929190803573ffffffffffffffffffffffffffffffffffffffff16906020019092919080359060200190929190505050610d87565b005b6103a36004803603604081101561036d5760006000fd5b81019080803573ffffffffffffffffffffffffffffffffffffffff16906020019092919080359060200190929190505050610e12565b6040518082815260200191505060405180910390f35b610426600480360360608110156103d05760006000fd5b81019080803573ffffffffffffffffffffffffffffffffffffffff169060200190929190803573ffffffffffffffffffffffffffffffffffffffff16906020019092919080359060200190929190505050610eeb565b005b6105876004803603604081101561043f5760006000fd5b810190808035906020019064010000000081111561045d5760006000fd5b8201836020820111156104705760006000fd5b803590602001918460018302840111640100000000831117156104935760006000fd5b91908080601f016020809104026020016040519081016040528093929190818152602001838380828437600081840152601f19601f82011690508083019250505050505050909091929090919290803590602001906401000000008111156104fb5760006000fd5b82018360208201111561050e5760006000fd5b803590602001918460018302840111640100000000831117156105315760006000fd5b91908080601f016020809104026020016040519081016040528093929190818152602001838380828437600081840152601f19601f82011690508083019250505050505050909091929090919290505050610f15565b005b6105b6600480360360208110156105a05760006000fd5b8101908080359060200190929190505050611088565b6040518082815260200191505060405180910390f35b6105f9600480360360208110156105e35760006000fd5b810190808035906020019092919050505061111f565b604051808273ffffffffffffffffffffffffffffffffffffffff1673ffffffffffffffffffffffffffffffffffffffff16815260200191505060405180910390f35b61067e600480360360208110156106525760006000fd5b81019080803573ffffffffffffffffffffffffffffffffffffffff1690602001909291905050506111f3565b6040518082815260200191505060405180910390f35b61069c6112de565b005b6106a661141b565b6040518080602001828103825283818151815260200191508051906020019080838360005b838110156106e75780820151818401525b6020810190506106cb565b50505050905090810190601f1680156107145780820380516001836020036101000a031916815260200191505b509250505060405180910390f35b610771600480360360408110156107395760006000fd5b81019080803573ffffffffffffffffffffffffffffffffffffffff1690602001909291908035151590602001909291905050506114c5565b005b61087e6004803603608081101561078a5760006000fd5b81019080803573ffffffffffffffffffffffffffffffffffffffff169060200190929190803573ffffffffffffffffffffffffffffffffffffffff16906020019092919080359060200190929190803590602001906401000000008111156107f25760006000fd5b8201836020820111156108055760006000fd5b803590602001918460018302840111640100000000831117156108285760006000fd5b91908080601f016020809104026020016040519081016040528093929190818152602001838380828437600081840152601f19601f8201169050808301925050505050505090909192909091929050505061169b565b005b6108ad600480360360208110156108975760006000fd5b810190808035906020019092919050505061171c565b6040518080602001828103825283818151815260200191508051906020019080838360005b838110156108ee5780820151818401525b6020810190506108d2565b50505050905090810190601f16801561091b5780820380516001836020036101000a031916815260200191505b509250505060405180910390f35b61098c600480360360408110156109405760006000fd5b81019080803573ffffffffffffffffffffffffffffffffffffffff169060200190929190803573ffffffffffffffffffffffffffffffffffffffff169060200190929190505050611842565b604051808215151515815260200191505060405180910390f35b600060336000506000837bffffffffffffffffffffffffffffffffffffffffffffffffffffffff19167bffffffffffffffffffffffffffffffffffffffffffffffffffffffff1916815260200190815260200160002060009054906101000a900460ff169050610a11565b919050565b606060d26000508054600181600116156101000203166002900480601f016020809104026020016040519081016040528092919081815260200182805460018160011615610100020316600290048015610ab15780601f10610a8657610100808354040283529160200191610ab1565b820191906000526020600020905b815481529060010190602001808311610a9457829003601f168201915b50505050509050610abd565b90565b6000610ad1826118e163ffffffff16565b1515610b28576040517f08c379a000000000000000000000000000000000000000000000000000000000815260040180806020018281038252602c815260200180612735602c913960400191505060405180910390fd5b6067600050600083815260200190815260200160002060009054906101000a900473ffffffffffffffffffffffffffffffffffffffff169050610b66565b919050565b6000610b7c8261111f63ffffffff16565b90508073ffffffffffffffffffffffffffffffffffffffff168373ffffffffffffffffffffffffffffffffffffffff1614151515610c05576040517f08c379a00000000000000000000000000000000000000000000000000000000081526004018080602001828103825260218152602001806127e76021913960400191505060405180910390fd5b8073ffffffffffffffffffffffffffffffffffffffff16610c2a61195d63ffffffff16565b73ffffffffffffffffffffffffffffffffffffffff161480610c655750610c6481610c5961195d63ffffffff16565b61184263ffffffff16565b5b1515610cbc576040517f08c379a00000000000000000000000000000000000000000000000000000000081526004018080602001828103825260388152602001806126aa6038913960400191505060405180910390fd5b826067600050600084815260200190815260200160002060006101000a81548173ffffffffffffffffffffffffffffffffffffffff021916908373ffffffffffffffffffffffffffffffffffffffff160217905550818373ffffffffffffffffffffffffffffffffffffffff168273ffffffffffffffffffffffffffffffffffffffff167f8c5be1e5ebec7d5bd14f71427d1e84f3dd0314c0f7b2291e5b200ac8c7c3b92560405160405180910390a4505b5050565b6000609e600050805490509050610d84565b90565b610da4610d9861195d63ffffffff16565b8261196a63ffffffff16565b1515610dfb576040517f08c379a00000000000000000000000000000000000000000000000000000000081526004018080602001828103825260318152602001806128086031913960400191505060405180910390fd5b610e0c838383611a7e63ffffffff16565b5b505050565b6000610e23836111f363ffffffff16565b82101515610e7c576040517f08c379a000000000000000000000000000000000000000000000000000000000815260040180806020018281038252602b8152602001806125fd602b913960400191505060405180910390fd5b609c60005060008473ffffffffffffffffffffffffffffffffffffffff1673ffffffffffffffffffffffffffffffffffffffff16815260200190815260200160002060005082815481101515610ece57fe5b906000526020600020900160005b50549050610ee5565b92915050565b610f0f8383836040518060200160405280600081526020015061169b63ffffffff16565b5b505050565b600060019054906101000a900460ff1680610f3a5750610f39611ab563ffffffff16565b5b80610f525750600060009054906101000a900460ff16155b1515610fa9576040517f08c379a000000000000000000000000000000000000000000000000000000000815260040180806020018281038252602e815260200180612761602e913960400191505060405180910390fd5b6000600060019054906101000a900460ff161590508015610ffb576001600060016101000a81548160ff0219169083151502179055506001600060006101000a81548160ff0219169083151502179055505b611009611acd63ffffffff16565b15156110155760006000fd5b8260d2600050908051906020019061102e929190612520565b508160d36000509080519060200190611048929190612520565b5061105f635b5e139f60e01b611aef63ffffffff16565b5b8015611082576000600060016101000a81548160ff0219169083151502179055505b505b5050565b6000611098610d7263ffffffff16565b821015156110f1576040517f08c379a000000000000000000000000000000000000000000000000000000000815260040180806020018281038252602c815260200180612839602c913960400191505060405180910390fd5b609e6000508281548110151561110357fe5b906000526020600020900160005b5054905061111a565b919050565b600060006066600050600084815260200190815260200160002060009054906101000a900473ffffffffffffffffffffffffffffffffffffffff169050600073ffffffffffffffffffffffffffffffffffffffff168173ffffffffffffffffffffffffffffffffffffffff16141515156111e4576040517f08c379a000000000000000000000000000000000000000000000000000000000815260040180806020018281038252602981526020018061270c6029913960400191505060405180910390fd5b809150506111ee56505b919050565b6000600073ffffffffffffffffffffffffffffffffffffffff168273ffffffffffffffffffffffffffffffffffffffff161415151561127d576040517f08c379a000000000000000000000000000000000000000000000000000000000815260040180806020018281038252602a8152602001806126e2602a913960400191505060405180910390fd5b6112d2606860005060008473ffffffffffffffffffffffffffffffffffffffff1673ffffffffffffffffffffffffffffffffffffffff168152602001908152602001600020600050611c01909063ffffffff16565b90506112d9565b919050565b600060019054906101000a900460ff16806113035750611302611ab563ffffffff16565b5b8061131b5750600060009054906101000a900460ff16155b1515611372576040517f08c379a000000000000000000000000000000000000000000000000000000000815260040180806020018281038252602e815260200180612761602e913960400191505060405180910390fd5b6000600060019054906101000a900460ff1615905080156113c4576001600060016101000a81548160ff0219169083151502179055506001600060006101000a81548160ff0219169083151502179055505b6113d2611acd63ffffffff16565b15156113de5760006000fd5b6113f463780e9d6360e01b611aef63ffffffff16565b5b8015611417576000600060016101000a81548160ff0219169083151502179055505b505b565b606060d36000508054600181600116156101000203166002900480601f0160208091040260200160405190810160405280929190818152602001828054600181600116156101000203166002900480156114b65780601f1061148b576101008083540402835291602001916114b6565b820191906000526020600020905b81548152906001019060200180831161149957829003601f168201915b505050505090506114c2565b90565b6114d361195d63ffffffff16565b73ffffffffffffffffffffffffffffffffffffffff168273ffffffffffffffffffffffffffffffffffffffff1614151515611579576040517f08c379a00000000000000000000000000000000000000000000000000000000081526004018080602001828103825260198152602001807f4552433732313a20617070726f766520746f2063616c6c65720000000000000081526020015060200191505060405180910390fd5b806069600050600061158f61195d63ffffffff16565b73ffffffffffffffffffffffffffffffffffffffff1673ffffffffffffffffffffffffffffffffffffffff16815260200190815260200160002060005060008473ffffffffffffffffffffffffffffffffffffffff1673ffffffffffffffffffffffffffffffffffffffff16815260200190815260200160002060006101000a81548160ff0219169083151502179055508173ffffffffffffffffffffffffffffffffffffffff1661164561195d63ffffffff16565b73ffffffffffffffffffffffffffffffffffffffff167f17307eab39ab6107e8899845ad3d59bd9653f200f220920489ca2b5937696c3183604051808215151515815260200191505060405180910390a35b5050565b6116ac848484610d8763ffffffff16565b6116be84848484611c1763ffffffff16565b1515611715576040517f08c379a00000000000000000000000000000000000000000000000000000000081526004018080602001828103825260328152602001806126286032913960400191505060405180910390fd5b5b50505050565b606061172d826118e163ffffffff16565b1515611784576040517f08c379a000000000000000000000000000000000000000000000000000000000815260040180806020018281038252602f8152602001806127b8602f913960400191505060405180910390fd5b60d460005060008381526020019081526020016000206000508054600181600116156101000203166002900480601f0160208091040260200160405190810160405280929190818152602001828054600181600116156101000203166002900480156118315780601f1061180657610100808354040283529160200191611831565b820191906000526020600020905b81548152906001019060200180831161181457829003601f168201915b5050505050905061183d565b919050565b6000606960005060008473ffffffffffffffffffffffffffffffffffffffff1673ffffffffffffffffffffffffffffffffffffffff16815260200190815260200160002060005060008373ffffffffffffffffffffffffffffffffffffffff1673ffffffffffffffffffffffffffffffffffffffff16815260200190815260200160002060009054906101000a900460ff1690506118db565b92915050565b600060006066600050600084815260200190815260200160002060009054906101000a900473ffffffffffffffffffffffffffffffffffffffff169050600073ffffffffffffffffffffffffffffffffffffffff168173ffffffffffffffffffffffffffffffffffffffff16141591505061195856505b919050565b6000339050611967565b90565b600061197b826118e163ffffffff16565b15156119d2576040517f08c379a000000000000000000000000000000000000000000000000000000000815260040180806020018281038252602c81526020018061267e602c913960400191505060405180910390fd5b60006119e38361111f63ffffffff16565b90508073ffffffffffffffffffffffffffffffffffffffff168473ffffffffffffffffffffffffffffffffffffffff161480611a5857508373ffffffffffffffffffffffffffffffffffffffff16611a4084610ac063ffffffff16565b73ffffffffffffffffffffffffffffffffffffffff16145b80611a6f5750611a6e818561184263ffffffff16565b5b915050611a7856505b92915050565b611a8f838383611e2063ffffffff16565b611a9f83826120ab63ffffffff16565b611aaf828261228463ffffffff16565b5b505050565b60006000303b905060008114915050611aca56505b90565b6000611ae56380ac58cd60e01b6109a663ffffffff16565b9050611aec565b90565b63ffffffff60e01b817bffffffffffffffffffffffffffffffffffffffffffffffffffffffff191614151515611b90576040517f08c379a000000000000000000000000000000000000000000000000000000000815260040180806020018281038252601c8152602001807f4552433136353a20696e76616c696420696e746572666163652069640000000081526020015060200191505060405180910390fd5b600160336000506000837bffffffffffffffffffffffffffffffffffffffffffffffffffffffff19167bffffffffffffffffffffffffffffffffffffffffffffffffffffffff1916815260200190815260200160002060006101000a81548160ff0219169083151502179055505b50565b600081600001600050549050611c12565b919050565b6000611c408473ffffffffffffffffffffffffffffffffffffffff16612364909063ffffffff16565b1515611c4f5760019050611e18565b60008473ffffffffffffffffffffffffffffffffffffffff1663150b7a02611c7b61195d63ffffffff16565b8887876040518563ffffffff1660e01b8152600401808573ffffffffffffffffffffffffffffffffffffffff1673ffffffffffffffffffffffffffffffffffffffff1681526020018473ffffffffffffffffffffffffffffffffffffffff1673ffffffffffffffffffffffffffffffffffffffff16815260200183815260200180602001828103825283818151815260200191508051906020019080838360005b83811015611d385780820151818401525b602081019050611d1c565b50505050905090810190601f168015611d655780820380516001836020036101000a031916815260200191505b5095505050505050602060405180830381600087803b158015611d885760006000fd5b505af1158015611d9d573d600060003e3d6000fd5b505050506040513d6020811015611db45760006000fd5b8101908080519060200190929190505050905063150b7a0260e01b7bffffffffffffffffffffffffffffffffffffffffffffffffffffffff1916817bffffffffffffffffffffffffffffffffffffffffffffffffffffffff191614915050611e1856505b949350505050565b8273ffffffffffffffffffffffffffffffffffffffff16611e468261111f63ffffffff16565b73ffffffffffffffffffffffffffffffffffffffff16141515611eb4576040517f08c379a000000000000000000000000000000000000000000000000000000000815260040180806020018281038252602981526020018061278f6029913960400191505060405180910390fd5b600073ffffffffffffffffffffffffffffffffffffffff168273ffffffffffffffffffffffffffffffffffffffff1614151515611f3c576040517f08c379a000000000000000000000000000000000000000000000000000000000815260040180806020018281038252602481526020018061265a6024913960400191505060405180910390fd5b611f4b8161237e63ffffffff16565b611fa0606860005060008573ffffffffffffffffffffffffffffffffffffffff1673ffffffffffffffffffffffffffffffffffffffff168152602001908152602001600020600050612445909063ffffffff16565b611ff5606860005060008473ffffffffffffffffffffffffffffffffffffffff1673ffffffffffffffffffffffffffffffffffffffff168152602001908152602001600020600050612471909063ffffffff16565b816066600050600083815260200190815260200160002060006101000a81548173ffffffffffffffffffffffffffffffffffffffff021916908373ffffffffffffffffffffffffffffffffffffffff160217905550808273ffffffffffffffffffffffffffffffffffffffff168473ffffffffffffffffffffffffffffffffffffffff167fddf252ad1be2c89b69c2b068fc378daa952ba7f163c4a11628f55a4df523b3ef60405160405180910390a45b505050565b60006121096001609c60005060008673ffffffffffffffffffffffffffffffffffffffff1673ffffffffffffffffffffffffffffffffffffffff1681526020019081526020016000206000508054905061248c90919063ffffffff16565b90506000609d60005060008481526020019081526020016000206000505490508181141515612222576000609c60005060008673ffffffffffffffffffffffffffffffffffffffff1673ffffffffffffffffffffffffffffffffffffffff1681526020019081526020016000206000508381548110151561218657fe5b906000526020600020900160005b5054905080609c60005060008773ffffffffffffffffffffffffffffffffffffffff1673ffffffffffffffffffffffffffffffffffffffff168152602001908152602001600020600050838154811015156121eb57fe5b906000526020600020900160005b5081909090555081609d6000506000838152602001908152602001600020600050819090905550505b609c60005060008573ffffffffffffffffffffffffffffffffffffffff1673ffffffffffffffffffffffffffffffffffffffff168152602001908152602001600020600050805480919060019003909061227c91906125a5565b5050505b5050565b609c60005060008373ffffffffffffffffffffffffffffffffffffffff1673ffffffffffffffffffffffffffffffffffffffff16815260200190815260200160002060005080549050609d6000506000838152602001908152602001600020600050819090905550609c60005060008373ffffffffffffffffffffffffffffffffffffffff1673ffffffffffffffffffffffffffffffffffffffff1681526020019081526020016000206000508190806001815401808255809150509060018203906000526020600020900160005b9091929091909150909055505b5050565b60006000823b90506000811191505061237956505b919050565b600073ffffffffffffffffffffffffffffffffffffffff166067600050600083815260200190815260200160002060009054906101000a900473ffffffffffffffffffffffffffffffffffffffff1673ffffffffffffffffffffffffffffffffffffffff161415156124415760006067600050600083815260200190815260200160002060006101000a81548173ffffffffffffffffffffffffffffffffffffffff021916908373ffffffffffffffffffffffffffffffffffffffff1602179055505b5b50565b6124606001826000016000505461248c90919063ffffffff16565b816000016000508190909055505b50565b60018160000160008282825054019250508190909055505b50565b6000828211151515612509576040517f08c379a000000000000000000000000000000000000000000000000000000000815260040180806020018281038252601e8152602001807f536166654d6174683a207375627472616374696f6e206f766572666c6f77000081526020015060200191505060405180910390fd5b600082840390508091505061251a56505b92915050565b828054600181600116156101000203166002900490600052602060002090601f016020900481019282601f1061256157805160ff1916838001178555612594565b82800160010185558215612594579182015b828111156125935782518260005090905591602001919060010190612573565b5b5090506125a191906125d1565b5090565b8154818355818111156125cc578183600052602060002091820191016125cb91906125d1565b5b505050565b6125f991906125db565b808211156125f557600081815060009055506001016125db565b5090565b9056fe455243373231456e756d657261626c653a206f776e657220696e646578206f7574206f6620626f756e64734552433732313a207472616e7366657220746f206e6f6e20455243373231526563656976657220696d706c656d656e7465724552433732313a207472616e7366657220746f20746865207a65726f20616464726573734552433732313a206f70657261746f7220717565727920666f72206e6f6e6578697374656e7420746f6b656e4552433732313a20617070726f76652063616c6c6572206973206e6f74206f776e6572206e6f7220617070726f76656420666f7220616c6c4552433732313a2062616c616e636520717565727920666f7220746865207a65726f20616464726573734552433732313a206f776e657220717565727920666f72206e6f6e6578697374656e7420746f6b656e4552433732313a20617070726f76656420717565727920666f72206e6f6e6578697374656e7420746f6b656e436f6e747261637420696e7374616e63652068617320616c7265616479206265656e20696e697469616c697a65644552433732313a207472616e73666572206f6620746f6b656e2074686174206973206e6f74206f776e4552433732314d657461646174613a2055524920717565727920666f72206e6f6e6578697374656e7420746f6b656e4552433732313a20617070726f76616c20746f2063757272656e74206f776e65724552433732313a207472616e736665722063616c6c6572206973206e6f74206f776e6572206e6f7220617070726f766564455243373231456e756d657261626c653a20676c6f62616c20696e646578206f7574206f6620626f756e6473a265627a7a723158204b5fbb9dc1a0d3bb9889a35ef61d331b308c5e8dab36962dd20d47260385e98f64736f6c634300050c0032",
  "compiler": {
    "name": "solc",
    "version": "0.5.12+commit.7709ece9.Emscripten.clang",
    "optimizer": {},
    "evmVersion": "constantinople"
  }
}